{"name":"PublicKeyStoreV2","content":"// File: contracts/public-key-store/PublicKeyStoreV2.sol\n\n// SPDX-License-Identifier: UNLICENSED\npragma solidity ^0.8.0;\n\n/**\n This rendition of a public key isn't revealing the public encryption key associated with the address.\n Instead, it presents an individual distinct public key.\n Alongside this public key, the confidential key is preserved in the contract and encrypted using the public encryption key attached to the address.\n*/\n\ncontract PublicKeyStoreV2\n{\n    mapping(address => string) private publicKeyMap;\n    mapping(address => string) private encSecretKeyMap;\n\n    function setKeys(string memory _publicKey, string memory _encSecretKey) public\n    {\n        require(bytes(encSecretKeyMap[msg.sender]).length == 0, 'Keys already exist!');\n        publicKeyMap[msg.sender] = _publicKey;\n        encSecretKeyMap[msg.sender] = _encSecretKey;\n    }\n\n    function getEncSecretKey() public view returns (string memory)\n    {\n        return encSecretKeyMap[msg.sender];\n    }\n\n    function getPublicKey(address _address) public view returns (string memory)\n    {\n        return publicKeyMap[_address];\n    }\n}\n","abi":[{"inputs":[],"name":"getEncSecretKey","outputs":[{"internalType":"string","name":"","type":"string"}],"stateMutability":"view","type":"function"},{"inputs":[{"internalType":"address","name":"_address","type":"address"}],"name":"getPublicKey","outputs":[{"internalType":"string","name":"","type":"string"}],"stateMutability":"view","type":"function"},{"inputs":[{"internalType":"string","name":"_publicKey","type":"string"},{"internalType":"string","name":"_encSecretKey","type":"string"}],"name":"setKeys","outputs":[],"stateMutability":"nonpayable","type":"function"}],"bytecode":"608060405234801561001057600080fd5b5061050f806100206000396000f3fe608060405234801561001057600080fd5b50600436106100415760003560e01c806378732aa814610046578063857cdbb814610064578063bba610b014610077575b600080fd5b61004e61008c565b60405161005b9190610408565b60405180910390f35b61004e610072366004610379565b61012d565b61008a6100853660046103a7565b6101d9565b005b3360009081526001602052604090208054606091906100aa90610488565b80601f01602080910402602001604051908101604052809291908181526020018280546100d690610488565b80156101235780601f106100f857610100808354040283529160200191610123565b820191906000526020600020905b81548152906001019060200180831161010657829003601f168201915b5050505050905090565b6001600160a01b038116600090815260208190526040902080546060919061015490610488565b80601f016020809104026020016040519081016040528092919081815260200182805461018090610488565b80156101cd5780601f106101a2576101008083540402835291602001916101cd565b820191906000526020600020905b8154815290600101906020018083116101b057829003601f168201915b50505050509050919050565b33600090815260016020526040902080546101f390610488565b15905061021b5760405162461bcd60e51b81526004016102129061045b565b60405180910390fd5b3360009081526020818152604090912083516102399285019061025f565b50336000908152600160209081526040909120825161025a9284019061025f565b505050565b82805461026b90610488565b90600052602060002090601f01602090048101928261028d57600085556102d3565b82601f106102a657805160ff19168380011785556102d3565b828001600101855582156102d3579182015b828111156102d35782518255916020019190600101906102b8565b506102df9291506102e3565b5090565b5b808211156102df57600081556001016102e4565b600082601f830112610308578081fd5b813567ffffffffffffffff80821115610323576103236104c3565b604051601f8301601f191681016020018281118282101715610347576103476104c3565b60405282815284830160200186101561035e578384fd5b82602086016020830137918201602001929092529392505050565b60006020828403121561038a578081fd5b81356001600160a01b03811681146103a0578182fd5b9392505050565b600080604083850312156103b9578081fd5b823567ffffffffffffffff808211156103d0578283fd5b6103dc868387016102f8565b935060208501359150808211156103f1578283fd5b506103fe858286016102f8565b9150509250929050565b6000602080835283518082850152825b8181101561043457858101830151858201604001528201610418565b818111156104455783604083870101525b50601f01601f1916929092016040019392505050565b6020808252601390820152724b65797320616c72656164792065786973742160681b604082015260600190565b60028104600182168061049c57607f821691505b602082108114156104bd57634e487b7160e01b600052602260045260246000fd5b50919050565b634e487b7160e01b600052604160045260246000fdfea26469706673582212204c0939fff24c49a29fc058b77e9cafcdd7a0fb06d0eb1ad98b527a84887a7df764736f6c63430008000033","opcodes":"PUSH1 0x80 PUSH1 0x40 MSTORE CALLVALUE DUP1 ISZERO PUSH2 0x10 JUMPI PUSH1 0x0 DUP1 REVERT JUMPDEST POP PUSH2 0x50F DUP1 PUSH2 0x20 PUSH1 0x0 CODECOPY PUSH1 0x0 RETURN INVALID PUSH1 0x80 PUSH1 0x40 MSTORE CALLVALUE DUP1 ISZERO PUSH2 0x10 JUMPI PUSH1 0x0 DUP1 REVERT JUMPDEST POP PUSH1 0x4 CALLDATASIZE LT PUSH2 0x41 JUMPI PUSH1 0x0 CALLDATALOAD PUSH1 0xE0 SHR DUP1 PUSH4 0x78732AA8 EQ PUSH2 0x46 JUMPI DUP1 PUSH4 0x857CDBB8 EQ PUSH2 0x64 JUMPI DUP1 PUSH4 0xBBA610B0 EQ PUSH2 0x77 JUMPI JUMPDEST PUSH1 0x0 DUP1 REVERT JUMPDEST PUSH2 0x4E PUSH2 0x8C JUMP JUMPDEST PUSH1 0x40 MLOAD PUSH2 0x5B SWAP2 SWAP1 PUSH2 0x408 JUMP JUMPDEST PUSH1 0x40 MLOAD DUP1 SWAP2 SUB SWAP1 RETURN JUMPDEST PUSH2 0x4E PUSH2 0x72 CALLDATASIZE PUSH1 0x4 PUSH2 0x379 JUMP JUMPDEST PUSH2 0x12D JUMP JUMPDEST PUSH2 0x8A PUSH2 0x85 CALLDATASIZE PUSH1 0x4 PUSH2 0x3A7 JUMP JUMPDEST PUSH2 0x1D9 JUMP JUMPDEST STOP JUMPDEST CALLER PUSH1 0x0 SWAP1 DUP2 MSTORE PUSH1 0x1 PUSH1 0x20 MSTORE PUSH1 0x40 SWAP1 KECCAK256 DUP1 SLOAD PUSH1 0x60 SWAP2 SWAP1 PUSH2 0xAA SWAP1 PUSH2 0x488 JUMP JUMPDEST DUP1 PUSH1 0x1F ADD PUSH1 0x20 DUP1 SWAP2 DIV MUL PUSH1 0x20 ADD PUSH1 0x40 MLOAD SWAP1 DUP2 ADD PUSH1 0x40 MSTORE DUP1 SWAP3 SWAP2 SWAP1 DUP2 DUP2 MSTORE PUSH1 0x20 ADD DUP3 DUP1 SLOAD PUSH2 0xD6 SWAP1 PUSH2 0x488 JUMP JUMPDEST DUP1 ISZERO PUSH2 0x123 JUMPI DUP1 PUSH1 0x1F LT PUSH2 0xF8 JUMPI PUSH2 0x100 DUP1 DUP4 SLOAD DIV MUL DUP4 MSTORE SWAP2 PUSH1 0x20 ADD SWAP2 PUSH2 0x123 JUMP JUMPDEST DUP3 ADD SWAP2 SWAP1 PUSH1 0x0 MSTORE PUSH1 0x20 PUSH1 0x0 KECCAK256 SWAP1 JUMPDEST DUP2 SLOAD DUP2 MSTORE SWAP1 PUSH1 0x1 ADD SWAP1 PUSH1 0x20 ADD DUP1 DUP4 GT PUSH2 0x106 JUMPI DUP3 SWAP1 SUB PUSH1 0x1F AND DUP3 ADD SWAP2 JUMPDEST POP POP POP POP POP SWAP1 POP SWAP1 JUMP JUMPDEST PUSH1 0x1 PUSH1 0x1 PUSH1 0xA0 SHL SUB DUP2 AND PUSH1 0x0 SWAP1 DUP2 MSTORE PUSH1 0x20 DUP2 SWAP1 MSTORE PUSH1 0x40 SWAP1 KECCAK256 DUP1 SLOAD PUSH1 0x60 SWAP2 SWAP1 PUSH2 0x154 SWAP1 PUSH2 0x488 JUMP JUMPDEST DUP1 PUSH1 0x1F ADD PUSH1 0x20 DUP1 SWAP2 DIV MUL PUSH1 0x20 ADD PUSH1 0x40 MLOAD SWAP1 DUP2 ADD PUSH1 0x40 MSTORE DUP1 SWAP3 SWAP2 SWAP1 DUP2 DUP2 MSTORE PUSH1 0x20 ADD DUP3 DUP1 SLOAD PUSH2 0x180 SWAP1 PUSH2 0x488 JUMP JUMPDEST DUP1 ISZERO PUSH2 0x1CD JUMPI DUP1 PUSH1 0x1F LT PUSH2 0x1A2 JUMPI PUSH2 0x100 DUP1 DUP4 SLOAD DIV MUL DUP4 MSTORE SWAP2 PUSH1 0x20 ADD SWAP2 PUSH2 0x1CD JUMP JUMPDEST DUP3 ADD SWAP2 SWAP1 PUSH1 0x0 MSTORE PUSH1 0x20 PUSH1 0x0 KECCAK256 SWAP1 JUMPDEST DUP2 SLOAD DUP2 MSTORE SWAP1 PUSH1 0x1 ADD SWAP1 PUSH1 0x20 ADD DUP1 DUP4 GT PUSH2 0x1B0 JUMPI DUP3 SWAP1 SUB PUSH1 0x1F AND DUP3 ADD SWAP2 JUMPDEST POP POP POP POP POP SWAP1 POP SWAP2 SWAP1 POP JUMP JUMPDEST CALLER PUSH1 0x0 SWAP1 DUP2 MSTORE PUSH1 0x1 PUSH1 0x20 MSTORE PUSH1 0x40 SWAP1 KECCAK256 DUP1 SLOAD PUSH2 0x1F3 SWAP1 PUSH2 0x488 JUMP JUMPDEST ISZERO SWAP1 POP PUSH2 0x21B JUMPI PUSH1 0x40 MLOAD PUSH3 0x461BCD PUSH1 0xE5 SHL DUP2 MSTORE PUSH1 0x4 ADD PUSH2 0x212 SWAP1 PUSH2 0x45B JUMP JUMPDEST PUSH1 0x40 MLOAD DUP1 SWAP2 SUB SWAP1 REVERT JUMPDEST CALLER PUSH1 0x0 SWAP1 DUP2 MSTORE PUSH1 0x20 DUP2 DUP2 MSTORE PUSH1 0x40 SWAP1 SWAP2 KECCAK256 DUP4 MLOAD PUSH2 0x239 SWAP3 DUP6 ADD SWAP1 PUSH2 0x25F JUMP JUMPDEST POP CALLER PUSH1 0x0 SWAP1 DUP2 MSTORE PUSH1 0x1 PUSH1 0x20 SWAP1 DUP2 MSTORE PUSH1 0x40 SWAP1 SWAP2 KECCAK256 DUP3 MLOAD PUSH2 0x25A SWAP3 DUP5 ADD SWAP1 PUSH2 0x25F JUMP JUMPDEST POP POP POP JUMP JUMPDEST DUP3 DUP1 SLOAD PUSH2 0x26B SWAP1 PUSH2 0x488 JUMP JUMPDEST SWAP1 PUSH1 0x0 MSTORE PUSH1 0x20 PUSH1 0x0 KECCAK256 SWAP1 PUSH1 0x1F ADD PUSH1 0x20 SWAP1 DIV DUP2 ADD SWAP3 DUP3 PUSH2 0x28D JUMPI PUSH1 0x0 DUP6 SSTORE PUSH2 0x2D3 JUMP JUMPDEST DUP3 PUSH1 0x1F LT PUSH2 0x2A6 JUMPI DUP1 MLOAD PUSH1 0xFF NOT AND DUP4 DUP1 ADD OR DUP6 SSTORE PUSH2 0x2D3 JUMP JUMPDEST DUP3 DUP1 ADD PUSH1 0x1 ADD DUP6 SSTORE DUP3 ISZERO PUSH2 0x2D3 JUMPI SWAP2 DUP3 ADD JUMPDEST DUP3 DUP2 GT ISZERO PUSH2 0x2D3 JUMPI DUP3 MLOAD DUP3 SSTORE SWAP2 PUSH1 0x20 ADD SWAP2 SWAP1 PUSH1 0x1 ADD SWAP1 PUSH2 0x2B8 JUMP JUMPDEST POP PUSH2 0x2DF SWAP3 SWAP2 POP PUSH2 0x2E3 JUMP JUMPDEST POP SWAP1 JUMP JUMPDEST JUMPDEST DUP1 DUP3 GT ISZERO PUSH2 0x2DF JUMPI PUSH1 0x0 DUP2 SSTORE PUSH1 0x1 ADD PUSH2 0x2E4 JUMP JUMPDEST PUSH1 0x0 DUP3 PUSH1 0x1F DUP4 ADD SLT PUSH2 0x308 JUMPI DUP1 DUP2 REVERT JUMPDEST DUP2 CALLDATALOAD PUSH8 0xFFFFFFFFFFFFFFFF DUP1 DUP3 GT ISZERO PUSH2 0x323 JUMPI PUSH2 0x323 PUSH2 0x4C3 JUMP JUMPDEST PUSH1 0x40 MLOAD PUSH1 0x1F DUP4 ADD PUSH1 0x1F NOT AND DUP2 ADD PUSH1 0x20 ADD DUP3 DUP2 GT DUP3 DUP3 LT OR ISZERO PUSH2 0x347 JUMPI PUSH2 0x347 PUSH2 0x4C3 JUMP JUMPDEST PUSH1 0x40 MSTORE DUP3 DUP2 MSTORE DUP5 DUP4 ADD PUSH1 0x20 ADD DUP7 LT ISZERO PUSH2 0x35E JUMPI DUP4 DUP5 REVERT JUMPDEST DUP3 PUSH1 0x20 DUP7 ADD PUSH1 0x20 DUP4 ADD CALLDATACOPY SWAP2 DUP3 ADD PUSH1 0x20 ADD SWAP3 SWAP1 SWAP3 MSTORE SWAP4 SWAP3 POP POP POP JUMP JUMPDEST PUSH1 0x0 PUSH1 0x20 DUP3 DUP5 SUB SLT ISZERO PUSH2 0x38A JUMPI DUP1 DUP2 REVERT JUMPDEST DUP2 CALLDATALOAD PUSH1 0x1 PUSH1 0x1 PUSH1 0xA0 SHL SUB DUP2 AND DUP2 EQ PUSH2 0x3A0 JUMPI DUP2 DUP3 REVERT JUMPDEST SWAP4 SWAP3 POP POP POP JUMP JUMPDEST PUSH1 0x0 DUP1 PUSH1 0x40 DUP4 DUP6 SUB SLT ISZERO PUSH2 0x3B9 JUMPI DUP1 DUP2 REVERT JUMPDEST DUP3 CALLDATALOAD PUSH8 0xFFFFFFFFFFFFFFFF DUP1 DUP3 GT ISZERO PUSH2 0x3D0 JUMPI DUP3 DUP4 REVERT JUMPDEST PUSH2 0x3DC DUP7 DUP4 DUP8 ADD PUSH2 0x2F8 JUMP JUMPDEST SWAP4 POP PUSH1 0x20 DUP6 ADD CALLDATALOAD SWAP2 POP DUP1 DUP3 GT ISZERO PUSH2 0x3F1 JUMPI DUP3 DUP4 REVERT JUMPDEST POP PUSH2 0x3FE DUP6 DUP3 DUP7 ADD PUSH2 0x2F8 JUMP JUMPDEST SWAP2 POP POP SWAP3 POP SWAP3 SWAP1 POP JUMP JUMPDEST PUSH1 0x0 PUSH1 0x20 DUP1 DUP4 MSTORE DUP4 MLOAD DUP1 DUP3 DUP6 ADD MSTORE DUP3 JUMPDEST DUP2 DUP2 LT ISZERO PUSH2 0x434 JUMPI DUP6 DUP2 ADD DUP4 ADD MLOAD DUP6 DUP3 ADD PUSH1 0x40 ADD MSTORE DUP3 ADD PUSH2 0x418 JUMP JUMPDEST DUP2 DUP2 GT ISZERO PUSH2 0x445 JUMPI DUP4 PUSH1 0x40 DUP4 DUP8 ADD ADD MSTORE JUMPDEST POP PUSH1 0x1F ADD PUSH1 0x1F NOT AND SWAP3 SWAP1 SWAP3 ADD PUSH1 0x40 ADD SWAP4 SWAP3 POP POP POP JUMP JUMPDEST PUSH1 0x20 DUP1 DUP3 MSTORE PUSH1 0x13 SWAP1 DUP3 ADD MSTORE PUSH19 0x4B65797320616C726561647920657869737421 PUSH1 0x68 SHL PUSH1 0x40 DUP3 ADD MSTORE PUSH1 0x60 ADD SWAP1 JUMP JUMPDEST PUSH1 0x2 DUP2 DIV PUSH1 0x1 DUP3 AND DUP1 PUSH2 0x49C JUMPI PUSH1 0x7F DUP3 AND SWAP2 POP JUMPDEST PUSH1 0x20 DUP3 LT DUP2 EQ ISZERO PUSH2 0x4BD JUMPI PUSH4 0x4E487B71 PUSH1 0xE0 SHL PUSH1 0x0 MSTORE PUSH1 0x22 PUSH1 0x4 MSTORE PUSH1 0x24 PUSH1 0x0 REVERT JUMPDEST POP SWAP2 SWAP1 POP JUMP JUMPDEST PUSH4 0x4E487B71 PUSH1 0xE0 SHL PUSH1 0x0 MSTORE PUSH1 0x41 PUSH1 0x4 MSTORE PUSH1 0x24 PUSH1 0x0 REVERT INVALID LOG2 PUSH5 0x6970667358 0x22 SLT KECCAK256 0x4C MULMOD CODECOPY SELFDESTRUCT CALLCODE 0x4C 0x49 LOG2 SWAP16 0xC0 PC 0xB7 PUSH31 0x9CAFCDD7A0FB06D0EB1AD98B527A84887A7DF764736F6C6343000800003300 ","date":"Fri Aug 02 2024 18:50:09 GMT+0200 (Mitteleuropäische Sommerzeit)","compiler":"solc-emscripten-wasm32-v0.8.0+commit.c7dfd78e.js"}